{
  "_format": "hh-sol-artifact-1",
  "contractName": "Ettarra",
  "sourceName": "contracts/Ettarra.sol",
  "abi": [
    {
      "inputs": [],
      "stateMutability": "nonpayable",
      "type": "constructor"
    },
    {
      "anonymous": false,
      "inputs": [
        {
          "indexed": true,
          "internalType": "address",
          "name": "owner",
          "type": "address"
        },
        {
          "indexed": true,
          "internalType": "address",
          "name": "approved",
          "type": "address"
        },
        {
          "indexed": true,
          "internalType": "uint256",
          "name": "tokenId",
          "type": "uint256"
        }
      ],
      "name": "Approval",
      "type": "event"
    },
    {
      "anonymous": false,
      "inputs": [
        {
          "indexed": true,
          "internalType": "address",
          "name": "owner",
          "type": "address"
        },
        {
          "indexed": true,
          "internalType": "address",
          "name": "operator",
          "type": "address"
        },
        {
          "indexed": false,
          "internalType": "bool",
          "name": "approved",
          "type": "bool"
        }
      ],
      "name": "ApprovalForAll",
      "type": "event"
    },
    {
      "anonymous": false,
      "inputs": [
        {
          "indexed": true,
          "internalType": "address",
          "name": "previousOwner",
          "type": "address"
        },
        {
          "indexed": true,
          "internalType": "address",
          "name": "newOwner",
          "type": "address"
        }
      ],
      "name": "OwnershipTransferred",
      "type": "event"
    },
    {
      "anonymous": false,
      "inputs": [
        {
          "indexed": false,
          "internalType": "address",
          "name": "account",
          "type": "address"
        }
      ],
      "name": "Paused",
      "type": "event"
    },
    {
      "anonymous": false,
      "inputs": [
        {
          "indexed": true,
          "internalType": "address",
          "name": "from",
          "type": "address"
        },
        {
          "indexed": true,
          "internalType": "address",
          "name": "to",
          "type": "address"
        },
        {
          "indexed": true,
          "internalType": "uint256",
          "name": "tokenId",
          "type": "uint256"
        }
      ],
      "name": "Transfer",
      "type": "event"
    },
    {
      "anonymous": false,
      "inputs": [
        {
          "indexed": false,
          "internalType": "address",
          "name": "account",
          "type": "address"
        }
      ],
      "name": "Unpaused",
      "type": "event"
    },
    {
      "anonymous": false,
      "inputs": [
        {
          "indexed": false,
          "internalType": "address",
          "name": "_userAddress",
          "type": "address"
        },
        {
          "indexed": false,
          "internalType": "uint256",
          "name": "_points",
          "type": "uint256"
        },
        {
          "indexed": false,
          "internalType": "uint256",
          "name": "_usersLoyaltyPoints",
          "type": "uint256"
        }
      ],
      "name": "addLoyaltyPointsOfUserEvent",
      "type": "event"
    },
    {
      "anonymous": false,
      "inputs": [
        {
          "indexed": false,
          "internalType": "address",
          "name": "_userAddress",
          "type": "address"
        },
        {
          "indexed": false,
          "internalType": "uint256",
          "name": "_tokenId",
          "type": "uint256"
        },
        {
          "indexed": false,
          "internalType": "bool",
          "name": "_result",
          "type": "bool"
        }
      ],
      "name": "assignNFTEvent",
      "type": "event"
    },
    {
      "anonymous": false,
      "inputs": [
        {
          "indexed": false,
          "internalType": "uint256",
          "name": "_tokenId",
          "type": "uint256"
        },
        {
          "indexed": false,
          "internalType": "uint256",
          "name": "_newThreshold",
          "type": "uint256"
        },
        {
          "indexed": false,
          "internalType": "uint256",
          "name": "_tokenThreshold",
          "type": "uint256"
        }
      ],
      "name": "changeLoyaltyThresholdEvent",
      "type": "event"
    },
    {
      "anonymous": false,
      "inputs": [
        {
          "indexed": false,
          "internalType": "address",
          "name": "_to",
          "type": "address"
        },
        {
          "indexed": false,
          "internalType": "uint256",
          "name": "_tokenId",
          "type": "uint256"
        },
        {
          "indexed": false,
          "internalType": "string",
          "name": "_uri",
          "type": "string"
        },
        {
          "indexed": false,
          "internalType": "uint256",
          "name": "_threshold",
          "type": "uint256"
        }
      ],
      "name": "safeMintEvent",
      "type": "event"
    },
    {
      "anonymous": false,
      "inputs": [
        {
          "indexed": false,
          "internalType": "address",
          "name": "_userAddress",
          "type": "address"
        },
        {
          "indexed": false,
          "internalType": "uint256",
          "name": "_points",
          "type": "uint256"
        },
        {
          "indexed": false,
          "internalType": "uint256",
          "name": "_usersLoyaltyPoints",
          "type": "uint256"
        }
      ],
      "name": "subtractLoyaltyPointsOfUserEvent",
      "type": "event"
    },
    {
      "inputs": [
        {
          "internalType": "address",
          "name": "userAddress",
          "type": "address"
        },
        {
          "internalType": "uint256",
          "name": "points",
          "type": "uint256"
        }
      ],
      "name": "addLoyaltyPointsOfUser",
      "outputs": [],
      "stateMutability": "nonpayable",
      "type": "function"
    },
    {
      "inputs": [
        {
          "internalType": "address",
          "name": "to",
          "type": "address"
        },
        {
          "internalType": "uint256",
          "name": "tokenId",
          "type": "uint256"
        }
      ],
      "name": "approve",
      "outputs": [],
      "stateMutability": "nonpayable",
      "type": "function"
    },
    {
      "inputs": [
        {
          "internalType": "address",
          "name": "userAddress",
          "type": "address"
        },
        {
          "internalType": "uint256",
          "name": "tokenId",
          "type": "uint256"
        }
      ],
      "name": "assignNFT",
      "outputs": [
        {
          "internalType": "bool",
          "name": "",
          "type": "bool"
        }
      ],
      "stateMutability": "nonpayable",
      "type": "function"
    },
    {
      "inputs": [
        {
          "internalType": "address",
          "name": "owner",
          "type": "address"
        }
      ],
      "name": "balanceOf",
      "outputs": [
        {
          "internalType": "uint256",
          "name": "",
          "type": "uint256"
        }
      ],
      "stateMutability": "view",
      "type": "function"
    },
    {
      "inputs": [
        {
          "internalType": "uint256",
          "name": "tokenId",
          "type": "uint256"
        },
        {
          "internalType": "uint256",
          "name": "newThreshold",
          "type": "uint256"
        }
      ],
      "name": "changeLoyaltyThreshold",
      "outputs": [],
      "stateMutability": "nonpayable",
      "type": "function"
    },
    {
      "inputs": [
        {
          "internalType": "uint256",
          "name": "tokenId",
          "type": "uint256"
        }
      ],
      "name": "getApproved",
      "outputs": [
        {
          "internalType": "address",
          "name": "",
          "type": "address"
        }
      ],
      "stateMutability": "view",
      "type": "function"
    },
    {
      "inputs": [
        {
          "internalType": "address",
          "name": "userAddress",
          "type": "address"
        }
      ],
      "name": "getUsersNFTs",
      "outputs": [
        {
          "internalType": "string[]",
          "name": "",
          "type": "string[]"
        }
      ],
      "stateMutability": "view",
      "type": "function"
    },
    {
      "inputs": [
        {
          "internalType": "address",
          "name": "owner",
          "type": "address"
        },
        {
          "internalType": "address",
          "name": "operator",
          "type": "address"
        }
      ],
      "name": "isApprovedForAll",
      "outputs": [
        {
          "internalType": "bool",
          "name": "",
          "type": "bool"
        }
      ],
      "stateMutability": "view",
      "type": "function"
    },
    {
      "inputs": [],
      "name": "name",
      "outputs": [
        {
          "internalType": "string",
          "name": "",
          "type": "string"
        }
      ],
      "stateMutability": "view",
      "type": "function"
    },
    {
      "inputs": [],
      "name": "owner",
      "outputs": [
        {
          "internalType": "address",
          "name": "",
          "type": "address"
        }
      ],
      "stateMutability": "view",
      "type": "function"
    },
    {
      "inputs": [
        {
          "internalType": "uint256",
          "name": "tokenId",
          "type": "uint256"
        }
      ],
      "name": "ownerOf",
      "outputs": [
        {
          "internalType": "address",
          "name": "",
          "type": "address"
        }
      ],
      "stateMutability": "view",
      "type": "function"
    },
    {
      "inputs": [],
      "name": "pause",
      "outputs": [],
      "stateMutability": "nonpayable",
      "type": "function"
    },
    {
      "inputs": [],
      "name": "paused",
      "outputs": [
        {
          "internalType": "bool",
          "name": "",
          "type": "bool"
        }
      ],
      "stateMutability": "view",
      "type": "function"
    },
    {
      "inputs": [],
      "name": "renounceOwnership",
      "outputs": [],
      "stateMutability": "nonpayable",
      "type": "function"
    },
    {
      "inputs": [
        {
          "internalType": "address",
          "name": "to",
          "type": "address"
        },
        {
          "internalType": "uint256",
          "name": "tokenId",
          "type": "uint256"
        },
        {
          "internalType": "string",
          "name": "uri",
          "type": "string"
        },
        {
          "internalType": "uint256",
          "name": "threshold",
          "type": "uint256"
        }
      ],
      "name": "safeMint",
      "outputs": [],
      "stateMutability": "nonpayable",
      "type": "function"
    },
    {
      "inputs": [
        {
          "internalType": "address",
          "name": "from",
          "type": "address"
        },
        {
          "internalType": "address",
          "name": "to",
          "type": "address"
        },
        {
          "internalType": "uint256",
          "name": "tokenId",
          "type": "uint256"
        }
      ],
      "name": "safeTransferFrom",
      "outputs": [],
      "stateMutability": "nonpayable",
      "type": "function"
    },
    {
      "inputs": [
        {
          "internalType": "address",
          "name": "from",
          "type": "address"
        },
        {
          "internalType": "address",
          "name": "to",
          "type": "address"
        },
        {
          "internalType": "uint256",
          "name": "tokenId",
          "type": "uint256"
        },
        {
          "internalType": "bytes",
          "name": "data",
          "type": "bytes"
        }
      ],
      "name": "safeTransferFrom",
      "outputs": [],
      "stateMutability": "nonpayable",
      "type": "function"
    },
    {
      "inputs": [
        {
          "internalType": "address",
          "name": "operator",
          "type": "address"
        },
        {
          "internalType": "bool",
          "name": "approved",
          "type": "bool"
        }
      ],
      "name": "setApprovalForAll",
      "outputs": [],
      "stateMutability": "nonpayable",
      "type": "function"
    },
    {
      "inputs": [
        {
          "internalType": "address",
          "name": "userAddress",
          "type": "address"
        },
        {
          "internalType": "uint256",
          "name": "points",
          "type": "uint256"
        }
      ],
      "name": "subtractLoyaltyPointsOfUser",
      "outputs": [],
      "stateMutability": "nonpayable",
      "type": "function"
    },
    {
      "inputs": [
        {
          "internalType": "bytes4",
          "name": "interfaceId",
          "type": "bytes4"
        }
      ],
      "name": "supportsInterface",
      "outputs": [
        {
          "internalType": "bool",
          "name": "",
          "type": "bool"
        }
      ],
      "stateMutability": "view",
      "type": "function"
    },
    {
      "inputs": [],
      "name": "symbol",
      "outputs": [
        {
          "internalType": "string",
          "name": "",
          "type": "string"
        }
      ],
      "stateMutability": "view",
      "type": "function"
    },
    {
      "inputs": [
        {
          "internalType": "uint256",
          "name": "tokenId",
          "type": "uint256"
        }
      ],
      "name": "tokenURI",
      "outputs": [
        {
          "internalType": "string",
          "name": "",
          "type": "string"
        }
      ],
      "stateMutability": "view",
      "type": "function"
    },
    {
      "inputs": [
        {
          "internalType": "address",
          "name": "from",
          "type": "address"
        },
        {
          "internalType": "address",
          "name": "to",
          "type": "address"
        },
        {
          "internalType": "uint256",
          "name": "tokenId",
          "type": "uint256"
        }
      ],
      "name": "transferFrom",
      "outputs": [],
      "stateMutability": "nonpayable",
      "type": "function"
    },
    {
      "inputs": [
        {
          "internalType": "address",
          "name": "newOwner",
          "type": "address"
        }
      ],
      "name": "transferOwnership",
      "outputs": [],
      "stateMutability": "nonpayable",
      "type": "function"
    },
    {
      "inputs": [],
      "name": "unpause",
      "outputs": [],
      "stateMutability": "nonpayable",
      "type": "function"
    },
    {
      "inputs": [
        {
          "internalType": "address",
          "name": "userAddress",
          "type": "address"
        }
      ],
      "name": "viewLoyaltyPointsOfUser",
      "outputs": [
        {
          "internalType": "uint256",
          "name": "",
          "type": "uint256"
        }
      ],
      "stateMutability": "view",
      "type": "function"
    }
  ],
  "bytecode": "0x60806040523480156200001157600080fd5b506040518060400160405280600781526020017f45747461727261000000000000000000000000000000000000000000000000008152506040518060400160405280600381526020017f455452000000000000000000000000000000000000000000000000000000000081525081600090816200008f91906200042d565b508060019081620000a191906200042d565b5050506000600760006101000a81548160ff021916908315150217905550620000df620000d3620000e560201b60201c565b620000ed60201b60201c565b62000514565b600033905090565b6000600760019054906101000a900473ffffffffffffffffffffffffffffffffffffffff16905081600760016101000a81548173ffffffffffffffffffffffffffffffffffffffff021916908373ffffffffffffffffffffffffffffffffffffffff1602179055508173ffffffffffffffffffffffffffffffffffffffff168173ffffffffffffffffffffffffffffffffffffffff167f8be0079c531659141344cd1fd0a4f28419497f9722a3daafe3b4186f6b6457e060405160405180910390a35050565b600081519050919050565b7f4e487b7100000000000000000000000000000000000000000000000000000000600052604160045260246000fd5b7f4e487b7100000000000000000000000000000000000000000000000000000000600052602260045260246000fd5b600060028204905060018216806200023557607f821691505b6020821081036200024b576200024a620001ed565b5b50919050565b60008190508160005260206000209050919050565b60006020601f8301049050919050565b600082821b905092915050565b600060088302620002b57fffffffffffffffffffffffffffffffffffffffffffffffffffffffffffffffff8262000276565b620002c1868362000276565b95508019841693508086168417925050509392505050565b6000819050919050565b6000819050919050565b60006200030e620003086200030284620002d9565b620002e3565b620002d9565b9050919050565b6000819050919050565b6200032a83620002ed565b62000342620003398262000315565b84845462000283565b825550505050565b600090565b620003596200034a565b620003668184846200031f565b505050565b5b818110156200038e57620003826000826200034f565b6001810190506200036c565b5050565b601f821115620003dd57620003a78162000251565b620003b28462000266565b81016020851015620003c2578190505b620003da620003d18562000266565b8301826200036b565b50505b505050565b600082821c905092915050565b60006200040260001984600802620003e2565b1980831691505092915050565b60006200041d8383620003ef565b9150826002028217905092915050565b6200043882620001b3565b67ffffffffffffffff811115620004545762000453620001be565b5b6200046082546200021c565b6200046d82828562000392565b600060209050601f831160018114620004a5576000841562000490578287015190505b6200049c85826200040f565b8655506200050c565b601f198416620004b58662000251565b60005b82811015620004df57848901518255600182019150602085019450602081019050620004b8565b86831015620004ff5784890151620004fb601f891682620003ef565b8355505b6001600288020188555050505b505050505050565b613c7b80620005246000396000f3fe608060405234801561001057600080fd5b506004361061018e5760003560e01c80638456cb59116100de578063c87b56dd11610097578063ea771eef11610071578063ea771eef1461046d578063ed4906a214610489578063f2fde38b146104a5578063f8cfeffa146104c15761018e565b8063c87b56dd146103dd578063e31abbbe1461040d578063e985e9c51461043d5761018e565b80638456cb591461032f5780638da5cb5b1461033957806395d89b4114610357578063a22cb46514610375578063b88d4fde14610391578063c24132eb146103ad5761018e565b80633f4ba83a1161014b5780635e16eb77116101255780635e16eb77146102a95780636352211e146102c557806370a08231146102f5578063715018a6146103255761018e565b80633f4ba83a1461026557806342842e0e1461026f5780635c975abb1461028b5761018e565b806301ffc9a71461019357806306fdde03146101c3578063081812fc146101e1578063095ea7b31461021157806321cf2e531461022d57806323b872dd14610249575b600080fd5b6101ad60048036038101906101a89190612508565b6104f1565b6040516101ba9190612550565b60405180910390f35b6101cb6105d3565b6040516101d891906125fb565b60405180910390f35b6101fb60048036038101906101f69190612653565b610665565b60405161020891906126c1565b60405180910390f35b61022b60048036038101906102269190612708565b6106ab565b005b61024760048036038101906102429190612748565b6107c2565b005b610263600480360381019061025e9190612788565b61082c565b005b61026d61088c565b005b61028960048036038101906102849190612788565b61089e565b005b6102936108be565b6040516102a09190612550565b60405180910390f35b6102c360048036038101906102be9190612708565b6108d5565b005b6102df60048036038101906102da9190612653565b6109a9565b6040516102ec91906126c1565b60405180910390f35b61030f600480360381019061030a91906127db565b610a2f565b60405161031c9190612817565b60405180910390f35b61032d610ae6565b005b610337610afa565b005b610341610b0c565b60405161034e91906126c1565b60405180910390f35b61035f610b36565b60405161036c91906125fb565b60405180910390f35b61038f600480360381019061038a919061285e565b610bc8565b005b6103ab60048036038101906103a691906129d3565b610bde565b005b6103c760048036038101906103c29190612708565b610c40565b6040516103d49190612550565b60405180910390f35b6103f760048036038101906103f29190612653565b610db6565b60405161040491906125fb565b60405180910390f35b610427600480360381019061042291906127db565b610dc8565b6040516104349190612817565b60405180910390f35b61045760048036038101906104529190612a56565b610e11565b6040516104649190612550565b60405180910390f35b61048760048036038101906104829190612b37565b610ea5565b005b6104a3600480360381019061049e9190612708565b610f14565b005b6104bf60048036038101906104ba91906127db565b610fe8565b005b6104db60048036038101906104d691906127db565b61106b565b6040516104e89190612cc6565b60405180910390f35b60007f80ac58cd000000000000000000000000000000000000000000000000000000007bffffffffffffffffffffffffffffffffffffffffffffffffffffffff1916827bffffffffffffffffffffffffffffffffffffffffffffffffffffffff191614806105bc57507f5b5e139f000000000000000000000000000000000000000000000000000000007bffffffffffffffffffffffffffffffffffffffffffffffffffffffff1916827bffffffffffffffffffffffffffffffffffffffffffffffffffffffff1916145b806105cc57506105cb82611227565b5b9050919050565b6060600080546105e290612d17565b80601f016020809104026020016040519081016040528092919081815260200182805461060e90612d17565b801561065b5780601f106106305761010080835404028352916020019161065b565b820191906000526020600020905b81548152906001019060200180831161063e57829003601f168201915b5050505050905090565b600061067082611291565b6004600083815260200190815260200160002060009054906101000a900473ffffffffffffffffffffffffffffffffffffffff169050919050565b60006106b6826109a9565b90508073ffffffffffffffffffffffffffffffffffffffff168373ffffffffffffffffffffffffffffffffffffffff1603610726576040517f08c379a000000000000000000000000000000000000000000000000000000000815260040161071d90612dba565b60405180910390fd5b8073ffffffffffffffffffffffffffffffffffffffff166107456112dc565b73ffffffffffffffffffffffffffffffffffffffff16148061077457506107738161076e6112dc565b610e11565b5b6107b3576040517f08c379a00000000000000000000000000000000000000000000000000000000081526004016107aa90612e4c565b60405180910390fd5b6107bd83836112e4565b505050565b8060086000848152602001908152602001600020819055507f39e15d9463fd6ef174e783dbccc31def9cd25a5171d2d94600e8c68f6202c2178282600860008681526020019081526020016000205460405161082093929190612e6c565b60405180910390a15050565b61083d6108376112dc565b8261139d565b61087c576040517f08c379a000000000000000000000000000000000000000000000000000000000815260040161087390612f15565b60405180910390fd5b610887838383611432565b505050565b61089461172b565b61089c6117a9565b565b6108b983838360405180602001604052806000815250610bde565b505050565b6000600760009054906101000a900460ff16905090565b80600a60008473ffffffffffffffffffffffffffffffffffffffff1673ffffffffffffffffffffffffffffffffffffffff16815260200190815260200160002060008282546109249190612f64565b925050819055507f287aa112c034a76b21552cb90d759a0729fe049d857fa0e6658387c64c66a1b68282600a60008673ffffffffffffffffffffffffffffffffffffffff1673ffffffffffffffffffffffffffffffffffffffff1681526020019081526020016000205460405161099d93929190612f98565b60405180910390a15050565b6000806109b58361180c565b9050600073ffffffffffffffffffffffffffffffffffffffff168173ffffffffffffffffffffffffffffffffffffffff1603610a26576040517f08c379a0000000000000000000000000000000000000000000000000000000008152600401610a1d9061301b565b60405180910390fd5b80915050919050565b60008073ffffffffffffffffffffffffffffffffffffffff168273ffffffffffffffffffffffffffffffffffffffff1603610a9f576040517f08c379a0000000000000000000000000000000000000000000000000000000008152600401610a96906130ad565b60405180910390fd5b600360008373ffffffffffffffffffffffffffffffffffffffff1673ffffffffffffffffffffffffffffffffffffffff168152602001908152602001600020549050919050565b610aee61172b565b610af86000611849565b565b610b0261172b565b610b0a61190f565b565b6000600760019054906101000a900473ffffffffffffffffffffffffffffffffffffffff16905090565b606060018054610b4590612d17565b80601f0160208091040260200160405190810160405280929190818152602001828054610b7190612d17565b8015610bbe5780601f10610b9357610100808354040283529160200191610bbe565b820191906000526020600020905b815481529060010190602001808311610ba157829003601f168201915b5050505050905090565b610bda610bd36112dc565b8383611972565b5050565b610bef610be96112dc565b8361139d565b610c2e576040517f08c379a0000000000000000000000000000000000000000000000000000000008152600401610c2590612f15565b60405180910390fd5b610c3a84848484611ade565b50505050565b60006008600083815260200190815260200160002054600a60008573ffffffffffffffffffffffffffffffffffffffff1673ffffffffffffffffffffffffffffffffffffffff168152602001908152602001600020541015610ca157600080fd5b6008600083815260200190815260200160002054600a60008573ffffffffffffffffffffffffffffffffffffffff1673ffffffffffffffffffffffffffffffffffffffff1681526020019081526020016000206000828254610d039190612f64565b92505081905550600960008473ffffffffffffffffffffffffffffffffffffffff1673ffffffffffffffffffffffffffffffffffffffff1681526020019081526020016000208290806001815401808255809150506001900390600052602060002001600090919091909150557ff8c3bad2007379822a637b2014778c9c24c7b5f6404cc677253687a0d3f3d74f83836001604051610da4939291906130cd565b60405180910390a16001905092915050565b6060610dc182611b3a565b9050919050565b6000600a60008373ffffffffffffffffffffffffffffffffffffffff1673ffffffffffffffffffffffffffffffffffffffff168152602001908152602001600020549050919050565b6000600560008473ffffffffffffffffffffffffffffffffffffffff1673ffffffffffffffffffffffffffffffffffffffff16815260200190815260200160002060008373ffffffffffffffffffffffffffffffffffffffff1673ffffffffffffffffffffffffffffffffffffffff16815260200190815260200160002060009054906101000a900460ff16905092915050565b610eaf8484611c4c565b610eb98383611c6a565b8060086000858152602001908152602001600020819055507f198f3abfef67f3185d1f2f099b7393ca724a522ae0deb9fa17c61c02e2abb83e84848484604051610f069493929190613104565b60405180910390a150505050565b80600a60008473ffffffffffffffffffffffffffffffffffffffff1673ffffffffffffffffffffffffffffffffffffffff1681526020019081526020016000206000828254610f639190613150565b925050819055507f9fa1c4477799fe1a3949436cb811699d15aea8be387477a253987dd8211d85fb8282600a60008673ffffffffffffffffffffffffffffffffffffffff1673ffffffffffffffffffffffffffffffffffffffff16815260200190815260200160002054604051610fdc93929190612f98565b60405180910390a15050565b610ff061172b565b600073ffffffffffffffffffffffffffffffffffffffff168173ffffffffffffffffffffffffffffffffffffffff160361105f576040517f08c379a0000000000000000000000000000000000000000000000000000000008152600401611056906131f6565b60405180910390fd5b61106881611849565b50565b60606000600960008473ffffffffffffffffffffffffffffffffffffffff1673ffffffffffffffffffffffffffffffffffffffff16815260200190815260200160002080549050905060008167ffffffffffffffff8111156110d0576110cf6128a8565b5b60405190808252806020026020018201604052801561110357816020015b60608152602001906001900390816110ee5790505b50905060005b8281101561121c573073ffffffffffffffffffffffffffffffffffffffff1663c87b56dd600960008873ffffffffffffffffffffffffffffffffffffffff1673ffffffffffffffffffffffffffffffffffffffff168152602001908152602001600020838154811061117e5761117d613216565b5b90600052602060002001546040518263ffffffff1660e01b81526004016111a59190612817565b600060405180830381865afa1580156111c2573d6000803e3d6000fd5b505050506040513d6000823e3d601f19601f820116820180604052508101906111eb91906132b5565b8282815181106111fe576111fd613216565b5b60200260200101819052508080611214906132fe565b915050611109565b508092505050919050565b60007f01ffc9a7000000000000000000000000000000000000000000000000000000007bffffffffffffffffffffffffffffffffffffffffffffffffffffffff1916827bffffffffffffffffffffffffffffffffffffffffffffffffffffffff1916149050919050565b61129a81611cd7565b6112d9576040517f08c379a00000000000000000000000000000000000000000000000000000000081526004016112d09061301b565b60405180910390fd5b50565b600033905090565b816004600083815260200190815260200160002060006101000a81548173ffffffffffffffffffffffffffffffffffffffff021916908373ffffffffffffffffffffffffffffffffffffffff160217905550808273ffffffffffffffffffffffffffffffffffffffff16611357836109a9565b73ffffffffffffffffffffffffffffffffffffffff167f8c5be1e5ebec7d5bd14f71427d1e84f3dd0314c0f7b2291e5b200ac8c7c3b92560405160405180910390a45050565b6000806113a9836109a9565b90508073ffffffffffffffffffffffffffffffffffffffff168473ffffffffffffffffffffffffffffffffffffffff1614806113eb57506113ea8185610e11565b5b8061142957508373ffffffffffffffffffffffffffffffffffffffff1661141184610665565b73ffffffffffffffffffffffffffffffffffffffff16145b91505092915050565b8273ffffffffffffffffffffffffffffffffffffffff16611452826109a9565b73ffffffffffffffffffffffffffffffffffffffff16146114a8576040517f08c379a000000000000000000000000000000000000000000000000000000000815260040161149f906133b8565b60405180910390fd5b600073ffffffffffffffffffffffffffffffffffffffff168273ffffffffffffffffffffffffffffffffffffffff1603611517576040517f08c379a000000000000000000000000000000000000000000000000000000000815260040161150e9061344a565b60405180910390fd5b6115248383836001611d18565b8273ffffffffffffffffffffffffffffffffffffffff16611544826109a9565b73ffffffffffffffffffffffffffffffffffffffff161461159a576040517f08c379a0000000000000000000000000000000000000000000000000000000008152600401611591906133b8565b60405180910390fd5b6004600082815260200190815260200160002060006101000a81549073ffffffffffffffffffffffffffffffffffffffff02191690556001600360008573ffffffffffffffffffffffffffffffffffffffff1673ffffffffffffffffffffffffffffffffffffffff168152602001908152602001600020600082825403925050819055506001600360008473ffffffffffffffffffffffffffffffffffffffff1673ffffffffffffffffffffffffffffffffffffffff16815260200190815260200160002060008282540192505081905550816002600083815260200190815260200160002060006101000a81548173ffffffffffffffffffffffffffffffffffffffff021916908373ffffffffffffffffffffffffffffffffffffffff160217905550808273ffffffffffffffffffffffffffffffffffffffff168473ffffffffffffffffffffffffffffffffffffffff167fddf252ad1be2c89b69c2b068fc378daa952ba7f163c4a11628f55a4df523b3ef60405160405180910390a46117268383836001611d32565b505050565b6117336112dc565b73ffffffffffffffffffffffffffffffffffffffff16611751610b0c565b73ffffffffffffffffffffffffffffffffffffffff16146117a7576040517f08c379a000000000000000000000000000000000000000000000000000000000815260040161179e906134b6565b60405180910390fd5b565b6117b1611d38565b6000600760006101000a81548160ff0219169083151502179055507f5db9ee0a495bf2e6ff9c91a7834c1ba4fdd244a5e8aa4e537bd38aeae4b073aa6117f56112dc565b60405161180291906126c1565b60405180910390a1565b60006002600083815260200190815260200160002060009054906101000a900473ffffffffffffffffffffffffffffffffffffffff169050919050565b6000600760019054906101000a900473ffffffffffffffffffffffffffffffffffffffff16905081600760016101000a81548173ffffffffffffffffffffffffffffffffffffffff021916908373ffffffffffffffffffffffffffffffffffffffff1602179055508173ffffffffffffffffffffffffffffffffffffffff168173ffffffffffffffffffffffffffffffffffffffff167f8be0079c531659141344cd1fd0a4f28419497f9722a3daafe3b4186f6b6457e060405160405180910390a35050565b611917611d81565b6001600760006101000a81548160ff0219169083151502179055507f62e78cea01bee320cd4e420270b5ea74000d11b0c9f74754ebdbfc544b05a25861195b6112dc565b60405161196891906126c1565b60405180910390a1565b8173ffffffffffffffffffffffffffffffffffffffff168373ffffffffffffffffffffffffffffffffffffffff16036119e0576040517f08c379a00000000000000000000000000000000000000000000000000000000081526004016119d790613522565b60405180910390fd5b80600560008573ffffffffffffffffffffffffffffffffffffffff1673ffffffffffffffffffffffffffffffffffffffff16815260200190815260200160002060008473ffffffffffffffffffffffffffffffffffffffff1673ffffffffffffffffffffffffffffffffffffffff16815260200190815260200160002060006101000a81548160ff0219169083151502179055508173ffffffffffffffffffffffffffffffffffffffff168373ffffffffffffffffffffffffffffffffffffffff167f17307eab39ab6107e8899845ad3d59bd9653f200f220920489ca2b5937696c3183604051611ad19190612550565b60405180910390a3505050565b611ae9848484611432565b611af584848484611dcb565b611b34576040517f08c379a0000000000000000000000000000000000000000000000000000000008152600401611b2b906135b4565b60405180910390fd5b50505050565b6060611b4582611291565b6000600660008481526020019081526020016000208054611b6590612d17565b80601f0160208091040260200160405190810160405280929190818152602001828054611b9190612d17565b8015611bde5780601f10611bb357610100808354040283529160200191611bde565b820191906000526020600020905b815481529060010190602001808311611bc157829003601f168201915b505050505090506000611bef611f52565b90506000815103611c04578192505050611c47565b600082511115611c39578082604051602001611c21929190613610565b60405160208183030381529060405292505050611c47565b611c4284611f72565b925050505b919050565b611c66828260405180602001604052806000815250611fda565b5050565b611c7382611cd7565b611cb2576040517f08c379a0000000000000000000000000000000000000000000000000000000008152600401611ca9906136a6565b60405180910390fd5b80600660008481526020019081526020016000209081611cd29190613872565b505050565b60008073ffffffffffffffffffffffffffffffffffffffff16611cf98361180c565b73ffffffffffffffffffffffffffffffffffffffff1614159050919050565b611d20611d81565b611d2c84848484612035565b50505050565b50505050565b611d406108be565b611d7f576040517f08c379a0000000000000000000000000000000000000000000000000000000008152600401611d7690613990565b60405180910390fd5b565b611d896108be565b15611dc9576040517f08c379a0000000000000000000000000000000000000000000000000000000008152600401611dc0906139fc565b60405180910390fd5b565b6000611dec8473ffffffffffffffffffffffffffffffffffffffff1661203b565b15611f45578373ffffffffffffffffffffffffffffffffffffffff1663150b7a02611e156112dc565b8786866040518563ffffffff1660e01b8152600401611e379493929190613a71565b6020604051808303816000875af1925050508015611e7357506040513d601f19601f82011682018060405250810190611e709190613ad2565b60015b611ef5573d8060008114611ea3576040519150601f19603f3d011682016040523d82523d6000602084013e611ea8565b606091505b506000815103611eed576040517f08c379a0000000000000000000000000000000000000000000000000000000008152600401611ee4906135b4565b60405180910390fd5b805181602001fd5b63150b7a0260e01b7bffffffffffffffffffffffffffffffffffffffffffffffffffffffff1916817bffffffffffffffffffffffffffffffffffffffffffffffffffffffff191614915050611f4a565b600190505b949350505050565b60606040518060600160405280603f8152602001613c07603f9139905090565b6060611f7d82611291565b6000611f87611f52565b90506000815111611fa75760405180602001604052806000815250611fd2565b80611fb18461205e565b604051602001611fc2929190613610565b6040516020818303038152906040525b915050919050565b611fe4838361212c565b611ff16000848484611dcb565b612030576040517f08c379a0000000000000000000000000000000000000000000000000000000008152600401612027906135b4565b60405180910390fd5b505050565b50505050565b6000808273ffffffffffffffffffffffffffffffffffffffff163b119050919050565b60606000600161206d84612349565b01905060008167ffffffffffffffff81111561208c5761208b6128a8565b5b6040519080825280601f01601f1916602001820160405280156120be5781602001600182028036833780820191505090505b509050600082602001820190505b600115612121578080600190039150507f3031323334353637383961626364656600000000000000000000000000000000600a86061a8153600a858161211557612114613aff565b5b049450600085036120cc575b819350505050919050565b600073ffffffffffffffffffffffffffffffffffffffff168273ffffffffffffffffffffffffffffffffffffffff160361219b576040517f08c379a000000000000000000000000000000000000000000000000000000000815260040161219290613b7a565b60405180910390fd5b6121a481611cd7565b156121e4576040517f08c379a00000000000000000000000000000000000000000000000000000000081526004016121db90613be6565b60405180910390fd5b6121f2600083836001611d18565b6121fb81611cd7565b1561223b576040517f08c379a000000000000000000000000000000000000000000000000000000000815260040161223290613be6565b60405180910390fd5b6001600360008473ffffffffffffffffffffffffffffffffffffffff1673ffffffffffffffffffffffffffffffffffffffff16815260200190815260200160002060008282540192505081905550816002600083815260200190815260200160002060006101000a81548173ffffffffffffffffffffffffffffffffffffffff021916908373ffffffffffffffffffffffffffffffffffffffff160217905550808273ffffffffffffffffffffffffffffffffffffffff16600073ffffffffffffffffffffffffffffffffffffffff167fddf252ad1be2c89b69c2b068fc378daa952ba7f163c4a11628f55a4df523b3ef60405160405180910390a4612345600083836001611d32565b5050565b600080600090507a184f03e93ff9f4daa797ed6e38ed64bf6a1f01000000000000000083106123a7577a184f03e93ff9f4daa797ed6e38ed64bf6a1f010000000000000000838161239d5761239c613aff565b5b0492506040810190505b6d04ee2d6d415b85acef810000000083106123e4576d04ee2d6d415b85acef810000000083816123da576123d9613aff565b5b0492506020810190505b662386f26fc10000831061241357662386f26fc10000838161240957612408613aff565b5b0492506010810190505b6305f5e100831061243c576305f5e100838161243257612431613aff565b5b0492506008810190505b612710831061246157612710838161245757612456613aff565b5b0492506004810190505b60648310612484576064838161247a57612479613aff565b5b0492506002810190505b600a8310612493576001810190505b80915050919050565b6000604051905090565b600080fd5b600080fd5b60007fffffffff0000000000000000000000000000000000000000000000000000000082169050919050565b6124e5816124b0565b81146124f057600080fd5b50565b600081359050612502816124dc565b92915050565b60006020828403121561251e5761251d6124a6565b5b600061252c848285016124f3565b91505092915050565b60008115159050919050565b61254a81612535565b82525050565b60006020820190506125656000830184612541565b92915050565b600081519050919050565b600082825260208201905092915050565b60005b838110156125a557808201518184015260208101905061258a565b60008484015250505050565b6000601f19601f8301169050919050565b60006125cd8261256b565b6125d78185612576565b93506125e7818560208601612587565b6125f0816125b1565b840191505092915050565b6000602082019050818103600083015261261581846125c2565b905092915050565b6000819050919050565b6126308161261d565b811461263b57600080fd5b50565b60008135905061264d81612627565b92915050565b600060208284031215612669576126686124a6565b5b60006126778482850161263e565b91505092915050565b600073ffffffffffffffffffffffffffffffffffffffff82169050919050565b60006126ab82612680565b9050919050565b6126bb816126a0565b82525050565b60006020820190506126d660008301846126b2565b92915050565b6126e5816126a0565b81146126f057600080fd5b50565b600081359050612702816126dc565b92915050565b6000806040838503121561271f5761271e6124a6565b5b600061272d858286016126f3565b925050602061273e8582860161263e565b9150509250929050565b6000806040838503121561275f5761275e6124a6565b5b600061276d8582860161263e565b925050602061277e8582860161263e565b9150509250929050565b6000806000606084860312156127a1576127a06124a6565b5b60006127af868287016126f3565b93505060206127c0868287016126f3565b92505060406127d18682870161263e565b9150509250925092565b6000602082840312156127f1576127f06124a6565b5b60006127ff848285016126f3565b91505092915050565b6128118161261d565b82525050565b600060208201905061282c6000830184612808565b92915050565b61283b81612535565b811461284657600080fd5b50565b60008135905061285881612832565b92915050565b60008060408385031215612875576128746124a6565b5b6000612883858286016126f3565b925050602061289485828601612849565b9150509250929050565b600080fd5b600080fd5b7f4e487b7100000000000000000000000000000000000000000000000000000000600052604160045260246000fd5b6128e0826125b1565b810181811067ffffffffffffffff821117156128ff576128fe6128a8565b5b80604052505050565b600061291261249c565b905061291e82826128d7565b919050565b600067ffffffffffffffff82111561293e5761293d6128a8565b5b612947826125b1565b9050602081019050919050565b82818337600083830152505050565b600061297661297184612923565b612908565b905082815260208101848484011115612992576129916128a3565b5b61299d848285612954565b509392505050565b600082601f8301126129ba576129b961289e565b5b81356129ca848260208601612963565b91505092915050565b600080600080608085870312156129ed576129ec6124a6565b5b60006129fb878288016126f3565b9450506020612a0c878288016126f3565b9350506040612a1d8782880161263e565b925050606085013567ffffffffffffffff811115612a3e57612a3d6124ab565b5b612a4a878288016129a5565b91505092959194509250565b60008060408385031215612a6d57612a6c6124a6565b5b6000612a7b858286016126f3565b9250506020612a8c858286016126f3565b9150509250929050565b600067ffffffffffffffff821115612ab157612ab06128a8565b5b612aba826125b1565b9050602081019050919050565b6000612ada612ad584612a96565b612908565b905082815260208101848484011115612af657612af56128a3565b5b612b01848285612954565b509392505050565b600082601f830112612b1e57612b1d61289e565b5b8135612b2e848260208601612ac7565b91505092915050565b60008060008060808587031215612b5157612b506124a6565b5b6000612b5f878288016126f3565b9450506020612b708782880161263e565b935050604085013567ffffffffffffffff811115612b9157612b906124ab565b5b612b9d87828801612b09565b9250506060612bae8782880161263e565b91505092959194509250565b600081519050919050565b600082825260208201905092915050565b6000819050602082019050919050565b600082825260208201905092915050565b6000612c028261256b565b612c0c8185612be6565b9350612c1c818560208601612587565b612c25816125b1565b840191505092915050565b6000612c3c8383612bf7565b905092915050565b6000602082019050919050565b6000612c5c82612bba565b612c668185612bc5565b935083602082028501612c7885612bd6565b8060005b85811015612cb45784840389528151612c958582612c30565b9450612ca083612c44565b925060208a01995050600181019050612c7c565b50829750879550505050505092915050565b60006020820190508181036000830152612ce08184612c51565b905092915050565b7f4e487b7100000000000000000000000000000000000000000000000000000000600052602260045260246000fd5b60006002820490506001821680612d2f57607f821691505b602082108103612d4257612d41612ce8565b5b50919050565b7f4552433732313a20617070726f76616c20746f2063757272656e74206f776e6560008201527f7200000000000000000000000000000000000000000000000000000000000000602082015250565b6000612da4602183612576565b9150612daf82612d48565b604082019050919050565b60006020820190508181036000830152612dd381612d97565b9050919050565b7f4552433732313a20617070726f76652063616c6c6572206973206e6f7420746f60008201527f6b656e206f776e6572206f7220617070726f76656420666f7220616c6c000000602082015250565b6000612e36603d83612576565b9150612e4182612dda565b604082019050919050565b60006020820190508181036000830152612e6581612e29565b9050919050565b6000606082019050612e816000830186612808565b612e8e6020830185612808565b612e9b6040830184612808565b949350505050565b7f4552433732313a2063616c6c6572206973206e6f7420746f6b656e206f776e6560008201527f72206f7220617070726f76656400000000000000000000000000000000000000602082015250565b6000612eff602d83612576565b9150612f0a82612ea3565b604082019050919050565b60006020820190508181036000830152612f2e81612ef2565b9050919050565b7f4e487b7100000000000000000000000000000000000000000000000000000000600052601160045260246000fd5b6000612f6f8261261d565b9150612f7a8361261d565b9250828203905081811115612f9257612f91612f35565b5b92915050565b6000606082019050612fad60008301866126b2565b612fba6020830185612808565b612fc76040830184612808565b949350505050565b7f4552433732313a20696e76616c696420746f6b656e2049440000000000000000600082015250565b6000613005601883612576565b915061301082612fcf565b602082019050919050565b6000602082019050818103600083015261303481612ff8565b9050919050565b7f4552433732313a2061646472657373207a65726f206973206e6f74206120766160008201527f6c6964206f776e65720000000000000000000000000000000000000000000000602082015250565b6000613097602983612576565b91506130a28261303b565b604082019050919050565b600060208201905081810360008301526130c68161308a565b9050919050565b60006060820190506130e260008301866126b2565b6130ef6020830185612808565b6130fc6040830184612541565b949350505050565b600060808201905061311960008301876126b2565b6131266020830186612808565b818103604083015261313881856125c2565b90506131476060830184612808565b95945050505050565b600061315b8261261d565b91506131668361261d565b925082820190508082111561317e5761317d612f35565b5b92915050565b7f4f776e61626c653a206e6577206f776e657220697320746865207a65726f206160008201527f6464726573730000000000000000000000000000000000000000000000000000602082015250565b60006131e0602683612576565b91506131eb82613184565b604082019050919050565b6000602082019050818103600083015261320f816131d3565b9050919050565b7f4e487b7100000000000000000000000000000000000000000000000000000000600052603260045260246000fd5b600061325861325384612a96565b612908565b905082815260208101848484011115613274576132736128a3565b5b61327f848285612587565b509392505050565b600082601f83011261329c5761329b61289e565b5b81516132ac848260208601613245565b91505092915050565b6000602082840312156132cb576132ca6124a6565b5b600082015167ffffffffffffffff8111156132e9576132e86124ab565b5b6132f584828501613287565b91505092915050565b60006133098261261d565b91507fffffffffffffffffffffffffffffffffffffffffffffffffffffffffffffffff820361333b5761333a612f35565b5b600182019050919050565b7f4552433732313a207472616e736665722066726f6d20696e636f72726563742060008201527f6f776e6572000000000000000000000000000000000000000000000000000000602082015250565b60006133a2602583612576565b91506133ad82613346565b604082019050919050565b600060208201905081810360008301526133d181613395565b9050919050565b7f4552433732313a207472616e7366657220746f20746865207a65726f2061646460008201527f7265737300000000000000000000000000000000000000000000000000000000602082015250565b6000613434602483612576565b915061343f826133d8565b604082019050919050565b6000602082019050818103600083015261346381613427565b9050919050565b7f4f776e61626c653a2063616c6c6572206973206e6f7420746865206f776e6572600082015250565b60006134a0602083612576565b91506134ab8261346a565b602082019050919050565b600060208201905081810360008301526134cf81613493565b9050919050565b7f4552433732313a20617070726f766520746f2063616c6c657200000000000000600082015250565b600061350c601983612576565b9150613517826134d6565b602082019050919050565b6000602082019050818103600083015261353b816134ff565b9050919050565b7f4552433732313a207472616e7366657220746f206e6f6e20455243373231526560008201527f63656976657220696d706c656d656e7465720000000000000000000000000000602082015250565b600061359e603283612576565b91506135a982613542565b604082019050919050565b600060208201905081810360008301526135cd81613591565b9050919050565b600081905092915050565b60006135ea8261256b565b6135f481856135d4565b9350613604818560208601612587565b80840191505092915050565b600061361c82856135df565b915061362882846135df565b91508190509392505050565b7f45524337323155524953746f726167653a2055524920736574206f66206e6f6e60008201527f6578697374656e7420746f6b656e000000000000000000000000000000000000602082015250565b6000613690602e83612576565b915061369b82613634565b604082019050919050565b600060208201905081810360008301526136bf81613683565b9050919050565b60008190508160005260206000209050919050565b60006020601f8301049050919050565b600082821b905092915050565b6000600883026137287fffffffffffffffffffffffffffffffffffffffffffffffffffffffffffffffff826136eb565b61373286836136eb565b95508019841693508086168417925050509392505050565b6000819050919050565b600061376f61376a6137658461261d565b61374a565b61261d565b9050919050565b6000819050919050565b61378983613754565b61379d61379582613776565b8484546136f8565b825550505050565b600090565b6137b26137a5565b6137bd818484613780565b505050565b5b818110156137e1576137d66000826137aa565b6001810190506137c3565b5050565b601f821115613826576137f7816136c6565b613800846136db565b8101602085101561380f578190505b61382361381b856136db565b8301826137c2565b50505b505050565b600082821c905092915050565b60006138496000198460080261382b565b1980831691505092915050565b60006138628383613838565b9150826002028217905092915050565b61387b8261256b565b67ffffffffffffffff811115613894576138936128a8565b5b61389e8254612d17565b6138a98282856137e5565b600060209050601f8311600181146138dc57600084156138ca578287015190505b6138d48582613856565b86555061393c565b601f1984166138ea866136c6565b60005b82811015613912578489015182556001820191506020850194506020810190506138ed565b8683101561392f578489015161392b601f891682613838565b8355505b6001600288020188555050505b505050505050565b7f5061757361626c653a206e6f7420706175736564000000000000000000000000600082015250565b600061397a601483612576565b915061398582613944565b602082019050919050565b600060208201905081810360008301526139a98161396d565b9050919050565b7f5061757361626c653a2070617573656400000000000000000000000000000000600082015250565b60006139e6601083612576565b91506139f1826139b0565b602082019050919050565b60006020820190508181036000830152613a15816139d9565b9050919050565b600081519050919050565b600082825260208201905092915050565b6000613a4382613a1c565b613a4d8185613a27565b9350613a5d818560208601612587565b613a66816125b1565b840191505092915050565b6000608082019050613a8660008301876126b2565b613a9360208301866126b2565b613aa06040830185612808565b8181036060830152613ab28184613a38565b905095945050505050565b600081519050613acc816124dc565b92915050565b600060208284031215613ae857613ae76124a6565b5b6000613af684828501613abd565b91505092915050565b7f4e487b7100000000000000000000000000000000000000000000000000000000600052601260045260246000fd5b7f4552433732313a206d696e7420746f20746865207a65726f2061646472657373600082015250565b6000613b64602083612576565b9150613b6f82613b2e565b602082019050919050565b60006020820190508181036000830152613b9381613b57565b9050919050565b7f4552433732313a20746f6b656e20616c7265616479206d696e74656400000000600082015250565b6000613bd0601c83612576565b9150613bdb82613b9a565b602082019050919050565b60006020820190508181036000830152613bff81613bc3565b905091905056fe68747470733a2f2f7265732e636c6f7564696e6172792e636f6d2f64793136756b6779762f696d6167652f75706c6f61642f657474617272615f6e6674732fa26469706673582212200197517fd5a5d61cebb8ed81abb0a551ad34481c0ef904813c16965faf0e9bd264736f6c63430008130033",
  "linkReferences": {},
  "deployedLinkReferences": {}
}